:020000040800F2
:1000000078070020A9010008212B0008192B0008FF
:100010001D2B00089D0A0008652C00080000000048
:10002000000000000000000000000000292B000874
:10003000A10A000800000000252B00082D2B000855
:10004000C3010008C3010008C3010008C301000880
:10005000C3010008C3010008C3010008A50A000885
:10006000C3010008C3010008AD0A0008C30100086D
:10007000C3010008C3010008C3010008C301000850
:10008000C3010008C3010008C3010008C301000840
:10009000C3010008C3010008C3010008B50A000835
:1000A000C3010008C3010008C3010008C301000820
:1000B000352B0008412B0008C3010008C3010008CC
:1000C000C3010008C3010008C3010008C301000800
:1000D000C3010008592C0008C3010008C30100082F
:1000E000C3010008C3010008C301000800F002F8C2
:1000F00000F04AF80AA090E8000C82448344AAF178
:100100000107DA4501D100F03FF8AFF2090EBAE875
:100110000F0013F0010F18BFFB1A43F0010318473B
:10012000C03D0000E03D0000103A24BF78C878C10F
:10013000FAD8520724BF30C830C144BF04680C60ED
:10014000704700000023002400250026103A28BF35
:1001500078C1FBD8520728BF30C148BF0B60704739
:10016000662903F05986732900F01E83002070472A
:100170001FB500F01DFB04000020002103F022FB4E
:10018000E0601FBD10B510BD00F012FC1146FFF776
:10019000EFFF02F069FD00F030FC03B4FFF7F2FF5F
:1001A00003BC00F073FC0000094880470948004781
:1001B000FEE7FEE7FEE7FEE7FEE7FEE7FEE7FEE717
:1001C000FEE7FEE704480549054A064B7047000074
:1001D000312B0008ED00000878010020780700208E
:1001E00078030020780300200FB41CB50C0007AA88
:1001F000009007D04142A14202D32044401E01E0BA
:100200004FF0FF30074B7B4469460190069800F0A1
:100210009EFA0020002C01D0009908701CBC5DF8EB
:1002200014FB00006B0500002DE9F0410E4604466A
:10023000002020622046E168884730B3252805D099
:10024000D4E901219047206A401CF2E7E16820468A
:1002500000278847050018D0A5F14100192802D8C9
:1002600020354FF400673246294620462760FFF7C5
:1002700077FF40B1012804D0F61D26F007060836A6
:10028000D8E7361DD6E72846DAE7206ABDE8F081D0
:1002900070B50C460546012A05D02878800600D5A1
:1002A000EA69002302E0012305E05B1C934202D2CD
:1002B000E05C0028F9D1A869E618C01AA861286A8C
:1002C000184428622846AFF3008004E0D5E90121F4
:1002D00014F8010B9047B442F8D32846AFF30080DE
:1002E00070BD10B5431C02E010F8011B71B181070D
:1002F000FAD14FF0013202C88C1A8C4314EAC211B1
:10030000F9D0C01A0A0603D0C01E10BDC01A10BD15
:100310000A0401D0801E10BD0902FCD0401E10BD91
:100320007047704770472DE9FF4F0C461E464FF04F
:10033000FF378BB0D2E90001DDF860800A908A4671
:10034000C1F30A5505B93D46002108464FF00000AB
:10035000BAF1000F00F4400005DA00EB80004FF422
:10036000400101EA50004FEA9059B9F1010F00DD58
:10037000B9460A9850EA4A000ED044F61050A5F249
:10038000FF3545432F14B8F1000F1ED07542291ECA
:100390001EDDC9F100021CE0B8F1010F4FF00000B2
:1003A00001D0302103E0F24305E02154401CB0426B
:1003B000FBDB30460022002121540B99C1F8088054
:1003C000C1E900200FB0BDE8F08FBD1B6D1CDEE75A
:1003D0004A4600DA694206A800F074FA06AB93E8D0
:1003E000070003AB83E8070050460A9902F00DFEB0
:1003F0008DE80700A0F500501F3800900398002DED
:100400000ADD42F21F014A460844002303A9039073
:10041000684603F077F809E0A0F500504A461F3817
:10042000002303A90390684603F081F88DE80700D4
:100430000004000C03D04FF0FF30410800E01046EC
:10044000B8F1000F03D00022009215461EE0751E81
:1004500005D400F0B1F9303262556D1EF9D5B346BE
:100460000122084302D000227F1C04E020783028BB
:1004700001D100227F1E002A099784D01DE0112D92
:1004800007DA00F099F9303262556D1C50EA01022A
:10049000F5D1084302D00098C8B10EE00021681ED3
:1004A00005E0235C625C63542254401E491C814277
:1004B000F7DBAB46A81B401E0990002004F80B0098
:1004C0000B98099AC0F80880C0E9002B7AE711263A
:1004D0004FF0000857E72DE9F04F88460446D21D3B
:1004E00022F0070191B0D1E90001CDE90A0103F042
:1004F00055F902460B98C00F01D02D2007E0206867
:10050000810701D52B2002E0202101EAC000032A47
:10051000099001D0072A05DB03464146204600F03A
:1005200091F90BE12078800601D5E06900E0062012
:10053000B8F1650F814606D0B8F1660F18D0B8F152
:10054000670F70D131E00020B9F1110F009001DB8D
:10055000112301E009F101030AAA01A90CA8FFF780
:10056000E2FEDDE90C70002609F10105834647E053
:1005700001204B4600904FF000470AAA01A90CA8A1
:10058000FFF7D1FEDDE90DB00C995D46002610B9EC
:1005900009F101000D18B9EB050003D4C0F1FF36D5
:1005A00009F10105A5EB09002BE0B9F1010F01DA12
:1005B0004FF001090020B9F1110F0090484601DD0C
:1005C000112300E003460AAA01A90CA8FFF7ABFE1D
:1005D000DDE90C704D4600268346207800070AD4DA
:1005E000AB4500DA5D4601A8012D04DD411911F883
:1005F000011C302907D04F4502DA17F1040F04DA45
:10060000012082460FE06D1EEEE7002F02DCED1B9D
:100610003E4403E0781CA84200DD7D1CB81B00F1BD
:10062000010A4FF000472078000703D4AA4501DBF8
:100630004FF0FF3A0021B7F1004F0DF143088DF85C
:10064000431024D002202B23002F01DA7F422D23D8
:100650000A21021EA0F1010000DC5FB197FBF1FC52
:1006600097FBF1F201FB1C7C17460CF1300C08F8EB
:1006700001CDEEE7A8F1010003702188090501D53D
:10068000452100E06521A0F1010800F8011C09984E
:100690000FA9A1EB0807FF1D00B10120411901EBD3
:1006A000EA70A1693844081A401EA0612078C0068B
:1006B00002D42046AFF30080099828B1D4E9012183
:1006C0009047206A401C20622078C00622D5204630
:1006D000AFF300801EE0002E04DBB34502DD01A86D
:1006E000805D00E03020D4E901219047206A401C61
:1006F0002062761CAAF101005FEA000A0AD100F02C
:1007000057F8C0680168405CD4E901219047206A2D
:10071000401C2062281EA5F10105DCDC07E0D4E9BD
:10072000012118F8010B9047206A401C2062381EF6
:10073000A7F10107F3DC2046AFF30080032011B0DE
:1007400041E6000001694A1C02610878704700B563
:100750008FB0CDE901310021059105497944CDE9FA
:10076000031011466846FFF75FFD0FB000BD0000A3
:10077000E5FFFFFFD1E900239A4202D2531C0B6030
:100780001070704710B5436913B1AFF3008001E0FA
:10079000FFF77EFD012010BD127800F124010A70E0
:1007A00000224A700122EDE711684FF0FF32E9E7BD
:1007B000004870473000002030B5B0F10A0271F1F6
:1007C00000034FEA900E4EEA817EB0EB0E0061EB23
:1007D00091014FEA101E4EEA017E10EB0E0041EB34
:1007E00011114FEA102E4EEA016E10EB0E0041EB94
:1007F00011214FEA104E4EEA014E10EB0E0041EB74
:100800001141401841F100014FEAD00040EA417027
:100810004FEAD1014FEA810444EA907410EB80055D
:1008200044EB01046D1944EB0404521BA3414FF047
:10083000000348BF0A3200D530BD401C41F1000121
:1008400030BD00002DE9F0411F4604460326016833
:10085000072A01F4006004DB08B116A505E016A51F
:1008600003E008B115A500E015A521F010002060F7
:10087000A069C01EA0610FB1401EA0612046AFF369
:1008800000804FB1D4E9012138469047206A401CCE
:100890002062C01C206206E0206AFAE7D4E9012148
:1008A00015F8010B9047761EF8D22046AFF3008072
:1008B000BDE8F0814E414E006E616E00494E46002B
:1008C000696E66002DE9F047814616468AB03548C4
:1008D00078440DC88DE80D0032487844801C03AC84
:1008E0000DC884E80D0041F69B300844372190FB89
:1008F000F1F290FBF1F5A5F1800501FB12041B3C20
:1009000002D56442012000E00020DFF898A0804674
:100910000027FA44AAF1BE0A0EE0E0070AD03246E8
:10092000684607EB470101230AEB810102F0FFFD56
:100930008DE8070064107F1C002CEED1194F7F4416
:10094000AE3F19E0E80715D007EB04100DF1180AC7
:1009500090E80E008AE80E00C068F04201D19819B4
:1009600008903246012306A903A802F0E0FD03AB7C
:1009700083E807006D10641C002DE3D14FF00103E4
:1009800032466946B8F1000F03A802D002F0BAFD62
:1009900001E002F0CCFDC9E90001C9F808200AB065
:1009A000BDE8F087C4350000004870471000002003
:1009B0007546FFF7F9FFAE4605006946534620F03D
:1009C0000700854618B020B5FFF7FCFBBDE82040C6
:1009D0004FF000064FF000074FF000084FF0000BFB
:1009E000AC46ACE8C009ACE8C009ACE8C009ACE86A
:1009F000C00921F007018D46704710B50446AFF3DA
:100A000000802046BDE81040FFF7C7BB4FF0013C17
:100A100050F8042B51F8043B9A4221D1A2EB0C036D
:100A2000934313EACC1317D150F8042B51F8043B2D
:100A30009A4215D1A2EB0C03934313EACC130BD1CA
:100A400050F8042B51F8043B9A4209D1A2EB0C0355
:100A5000934313EACC13DBD04FF00000704700BF84
:100A6000D01A01BAB1FA81F101F0180122FA01F0AD
:100A7000CB40DBB2C0B2C01AC1F120012CFA01F3A5
:100A8000D11A914311EAC311E6D1704701491820E8
:100A9000ABBEFEE72600020070470000FEE7000044
:100AA00070470000022000F04DB90000102000F057
:100AB00049B90000402000F045B90000014690F817
:100AC0002100022816D10868D1E90FC3026822F07C
:100AD0000E020260026822F001020260012000FAA8
:100AE00003F2CCF8042081F821000020002281F8D4
:100AF00020207047042088630120002281F82020F4
:100B00007047000080B590F82110022924D10268B6
:100B1000116821F00E0111602F211368C4F2020147
:100B20008A4240F20401C4F2020123F0010313607F
:100B300016DD3023C4F202039A421DD04423C4F2CE
:100B400002039A421CD05823C4F202039A421DD1D8
:100B50004FF4803322E000BF04218163012080BD77
:100B60000823C4F202039A420ED01C23C4F20203EB
:100B70009A420BD1102311E04FF480730EE000BFB6
:100B80004FF480530AE000BF012307E001F1680C35
:100B90004FF08073624508BF4FF480130B60012152
:100BA00080F82110426B002180F820100AB1904794
:100BB0000021084680BD000070B590B040285FD08D
:100BC000102840F0B88040F2E400C2F20000006853
:100BD00040F27006C2F20006406A7168F269736AF8
:100BE0008A1AC31A42F2107502FB053270617062F4
:100BF00040F60000F161C4F201002021B26000F073
:100C0000BBF9B1680446084602F07EFF02460B4677
:100C10004CF2F46143F66130CBF69971CAF232506E
:100C2000012C04BF4CF2F461C3F6997102F012FE7C
:100C300046F60023C4F2F803002202F079FF02F026
:100C4000D7FDF06003F072F843F6DA620DF10E059D
:100C50000C460090C0F6000239A3284632210194C8
:100C6000FFF7C2FA2846FFF73CFB06F12C0182B2DF
:100C7000084629464FF0FF3301F010FE10B070BD5A
:100C800040F2E400C2F20000006840F27006C2F2D6
:100C90000006406A7168326AB36A8A1AC31A42F25D
:100CA000107502FB0532B061B06240F6000031629F
:100CB000C4F201008021B26000F05EF9B168044620
:100CC000084602F021FF02460B464CF2F46143F65F
:100CD0006130CBF69971CAF23250012C04BF4CF24C
:100CE000F461C3F6997102F0B5FD46F60023C4F233
:100CF000F803002202F01CFF02F07AFD306103F0DD
:100D000015F843F6DA620DF10E040D460090C0F6B8
:100D100000020AA3204632210195FFF765FA20461A
:100D2000FFF7DFFA06F12C0182B2084621464FF0A8
:100D3000FF3301F0B3FD10B070BD00BF52000000E2
:100D40004C00000040F21441C4F201010A68024262
:100D500014BF08607047FFF72FBF00002DE9F04F68
:100D600082B00E68002E00F0038141F20042C4F20E
:100D70000102042340F2004E904208BF03234FF6C5
:100D8000FF7CC4F2010E009300240123C1F2100C79
:100D90004FF0000A4FF0000949E000BF012704F0BE
:100DA0000C030F229A402BEA020207FA03F34FEAE0
:100DB0009A051A4346F82520D1F804B040F20C45B4
:100DC0005FEACB22DEF8082054BF22EA080242EA9A
:100DD0000802C4F20105CEF808202A685FEA8B23D6
:100DE00054BF22EA080242EA08022A605FEA8B3313
:100DF000DEF8042054BF22EA080242EA08025FEA51
:100E0000CB33CEF80420DEF800204FF0010354BFAE
:100E100022EA080242EA0802CEF800200E680AF12F
:100E2000010A36FA0AF204F1040400F0A18003FA80
:100E30000AF816EA080FF1D04E68664512DC122E49
:100E400056D8DFE806F0350B4549555555555555EB
:100E5000555555555555554D510000BFD1F80C907D
:100E600046E000BF4FF6FF72C1F2210296420FDC4E
:100E70000022C1F2110296421AD00022C1F21202DF
:100E8000964215D00022C1F22102964210D02FE0E6
:100E90000022C1F2220296420AD00022C1F231029F
:100EA000964205D00022C1F23202964220D100BF04
:100EB0008A684AB1012A14BFC0F81480C0F81080B3
:100EC0004FF0080914E000BF4FF0040910E000BF24
:100ED000CA6802F108090BE04FF0000908E000BF02
:100EE000CA6802F1040903E0CA6802F10C0900BFF4
:100EF00022460646BAF1080F24BF203A0436376866
:100F00000F25954027EA050509FA02F22A433260C7
:100F1000CA79D2067FF582AF41F21803C4F2020308
:100F20001A68AEF57E7642F001021A601A6802F085
:100F300001020192019A2AF0030256F802B040F62B
:100F40000002C4F20102904210D040F60042C4F206
:100F5000010290423FF422AF41F20002C4F20102CA
:100F6000009F904208BF022719E700BF002716E73D
:100F700002B0BDE8F08F00008068084018BF012073
:100F800070470000002A08BF090401617047000093
:100F900040F27410C2F200000068704740F2000096
:100FA00040F27411C2F20000C2F2000100780A6837
:100FB000104408607047000080B542F20000C4F29F
:100FC0000200016841F010010160032000F08EF87A
:100FD0000F2000F005F800F027F8002080BD000089
:100FE00070B540F20006C2F2000640F20801327805
:100FF000C2F200014FF47A730968B3FBF2F20446BF
:10100000B1FBF2F1084600F063FB0F2C4FF0010535
:1010100008D838B94FF0FF3021460022002500F0F3
:1010200039F87460284670BD82B041F21800C4F2ED
:1010300002000168022241F001010160016801F033
:10104000010101910199416841F08051416040687E
:1010500000F08050009000980420C4F20100016864
:1010600062F31A61016002B070470000002848BFB7
:101070007047C1B200F01F00012202FA00F04EF2E8
:101080000012CEF2000242EAD10121F00301086011
:101090007047000010B54EF60C5CCEF2000CDCF888
:1010A0000030C3F3022E8EF00704042C28BF042462
:1010B000BEF103034FF0FF3E0EFA04F438BF0023E5
:1010C000A14399400EFA03F39A43114300F00F0233
:1010D00000F160430901043A03F5644362440028C7
:1010E00048BF02F10C03197010BD00004EF60C5100
:1010F000CEF200010A684FF6FF031A4060F30A229D
:1011000042F0806040F0FD70086070472DE9F043C8
:1011100081B0002800F0858042F20008C4F2020885
:101120000446D8F800000D4600F0070088420CD2B3
:10113000D8F8000020F007002843C8F80000D8F8CD
:10114000000000F00700A8426BD1206841F20409BA
:101150008107C4F2020917D5410705D5D9F8001057
:1011600041F4E061C9F80010010705D5D9F8001075
:1011700041F46051C9F80010D9F80010A26821F0BC
:10118000F0011143C9F80010C00741D1D8F80000A0
:1011900000F00700A8420CD9D8F8000020F00700A2
:1011A0002843C8F80000D8F8000000F00700A84263
:1011B00037D12068410707D5D9F80010E26821F43B
:1011C000E0611143C9F80010000708D5D9F8000004
:1011D000216920F4605040EAC100C9F80000D9F844
:1011E000002002F00C00082841F20020C0F27A0032
:1011F00050D143F6CA63C2F38341C0F60003595C81
:10120000D2033BD440F60010C0F23D00484341E019
:10121000606802280AD001282AD159F8041C8903E1
:1012200008D4012001B0BDE8F08300BF59F8041CC8
:101230008901F6D5D9F8001021F003010843C9F857
:101240000000FFF7A5FE064641F28837D9F80000F6
:10125000616800F00C00B0EB810F97D0FFF798FEAB
:10126000801BB842F2D9032001B0BDE8F08300BF73
:1012700059F8041C8907D4D5DCE700BFD9F8002051
:1012800043F6C863C2F34042C0F600039A5C484389
:10129000B0FBF2F0D9F8001043F6B062C1F30311CD
:1012A000C0F60002515C40F2080220FA01F140F25F
:1012B0000400C2F200000068C2F200021160FFF7F1
:1012C0008FFE002001B0BDE8F083000040F208006E
:1012D00041F20401C2F20000C4F202010068096890
:1012E00043F6C062C1F30221C0F60002515CC8405F
:1012F0007047000040F2080041F20401C2F2000011
:10130000C4F202010068096843F6C062C1F3C22159
:10131000C0F60002515CC840704700002DE9F04162
:1013200082B0002868D00446007841F20006C00769
:10133000C4F2020625D0706800F00C0004281BD00F
:10134000706800F00C00082802D17068C00313D444
:101350006068002800F06881B0F5A02F00F07C8163
:10136000B0F5803F00F07C81306820F48030306040
:10137000306820F4802076E13068800301D5606811
:10138000D0B32078800718D5706810F00C0F07D004
:10139000706800F00C0008286ED17068C0036BD430
:1013A0003068800702D52069012825D1306861693D
:1013B00020F0F80040EAC1003060207800071FD418
:1013C0002078400732D4E56995B1706800F00C00D0
:1013D000082840F08F80012D0ED07068216A00F43B
:1013E00080328A4208D1616A00F47010884203D1C9
:1013F000002002B0BDE8F081012002B0BDE8F0811C
:10140000A069002862D00020C4F242200121C0F867
:101410008014FFF7BDFD0546706A800700F18C80DF
:10142000FFF7B6FD401B0228F6D92AE1F06910F05B
:10143000805808D1F06940F08050F061F06900F008
:1014400080500090009847F20007C4F20007386807
:10145000C00529D4386840F480703860FFF798FDE3
:10146000054600BF3868C0051ED4FFF791FD401B3C
:101470006428F7D905E100BF2069002840F2000088
:10148000C4F2422000F0828001210160FFF780FD5C
:10149000054600BF306880073FF588AFFFF778FD4D
:1014A000401B0228F6D9ECE0E068002800F08080BC
:1014B000052800F09780012800F09880306A20F01D
:1014C00001003062306A20F0040092E00020C4F293
:1014D00042200021C0F88014FFF75AFD054600BFE6
:1014E000706A80077FF56CAFFFF752FD401B022842
:1014F000F6D9C6E00027C4F2422700203866FFF77D
:1015000047FD022D05460BD13068800140F1BE80B9
:10151000FFF73EFD401B02284FF00300F4D968E7B7
:10152000306880017FF564AFFFF732FD401B022871
:101530004FF00300F4D95CE740F20800C2F200006B
:10154000006844F6D351C1F26201A0FB0101480AD0
:10155000019000BF00BF0198411E002801913FF497
:101560002FAF00BF0198411E002801913FF428AF22
:1015700000BF0198411E002801913FF421AF00BF38
:101580000198411E00280191E4D119E70021016072
:10159000FFF7FEFC054600BF306880077FF50DAF02
:1015A000FFF7F6FC401B02284FF00300F4D920E7B8
:1015B000306A20F001003062306A20F004003062AE
:1015C000FFF7E6FC054641F2883700BF306A800726
:1015D00020D5FFF7DDFC401BB8424FF00300F5D9E2
:1015E00007E700BF306A40F004003062306A40F024
:1015F00001003062FFF7CCFC054641F2883700BF9E
:10160000306A800706D4FFF7C3FC401BB842F7D905
:1016100037E000BFB8F1000F7FF4D5AEF06920F0DD
:101620008050F061CFE600BF306820F48030306039
:10163000306820F480203060FFF7AAFC054600BF28
:10164000306880037FF59DAEFFF7A2FC401B642845
:101650004FF00300F4D9CCE6306840F480203060CD
:10166000306840F480303060FFF792FC054600BFE0
:10167000306880033FF585AEFFF78AFC401B642885
:10168000F6D9032002B0BDE8F08100BF206AB0F5B2
:10169000803F05D17168A26821F400311143716067
:1016A0007168626A21F4741111430843706001206B
:1016B0003866FFF76DFC0446306880013FF598AE50
:1016C000FFF766FC001B02284FF00300F4D990E6F8
:1016D000411E0020B0EB116F1CBF012070474EF27D
:1016E0001002CEF2000251604EF62351CEF20001FC
:1016F000F0230B7007219060116070477047000065
:101700007047000010B590F83C20012A4FF002020B
:1017100033D080F83D200268D2F804E0D2F808C047
:101720000C682EF07003234340F2FF74C4F20004EF
:10173000A24253600ADCB2F1804F13D040F2004362
:10174000C4F200039A420DD011E000BF42F60043FC
:10175000C4F201039A4205D040F60003C4F200032C
:101760009A4204D149682CF0800319439160012109
:10177000002280F83D1080F83C20104610BD00008B
:10178000002804BF0120704710B5044690F83D00C2
:1017900028B9002084F83C00204600F067F80220B9
:1017A00084F83D00206840F2FF730268C4F2000331
:1017B00042F6004C9842C4F2010C15DCB0F1804FA7
:1017C0001AD040F20041C4F20001884214D098427D
:1017D00018DCB0F1804F1DD040F20041C4F200018E
:1017E000884217D01AE000BF604505D040F60001DE
:1017F000C4F200018842EAD1A16822F070020A43D3
:101800009842E6DD604505D040F60001C4F20001D3
:10181000884203D1216922F440720A43A36922F06D
:101820008001D4F804E0E268194360450160C262B7
:10183000C0F828E002D16169CCF830100121416183
:10184000002084F8461084F83E1084F83F1084F895
:10185000401084F8411084F8421084F8431084F852
:10186000441084F8451084F83D1010BD10B582B0C6
:10187000006840F20041C4F20001884212D0B0F189
:10188000804F29D141F21C00C4F2020001681C24DF
:1018900041F001010160006800F001000190019831
:1018A0000EE000BF41F21C00C4F2020001681D24DA
:1018B00041F002010160006800F002000090009811
:1018C000204604210022FFF7E5FB204602B0BDE8D8
:1018D0001040FFF7CBBB00BF02B010BD90F83D1029
:1018E00001291CBF01207047022180F83D100068CB
:1018F00040F2FF71C4F20001884209DCB0F1804F70
:1019000012D040F20041C4F2000188420CD012E033
:1019100042F60041C4F20101884205D040F60001C0
:10192000C4F20001884206D1816801F0070106294E
:1019300004BF00207047016841F0010101600020F0
:101940007047000090F83D1001291CBF012070472E
:10195000022180F83D10006840F2FF72C168C4F2B5
:101960000002904241F00101C16009DCB0F1804FFA
:1019700012D040F20041C4F2000188420CD012E0C3
:1019800042F60041C4F20101884205D040F6000150
:10199000C4F20001884206D1816801F007010629DE
:1019A00004BF00207047016841F001010160002080
:1019B0007047000080B590F83C20012A4FF00202E9
:1019C00000F0C28080F83D20D0F800C04FF677725A
:1019D000DCF8083023EA0202CCF808200B684F2B11
:1019E00028DC1F2B44DD202B45D0302B43D0402B4F
:1019F00040F0AC80D1F804E0C968DCF82030DCF8B5
:101A0000202022F00102CCF82020DCF8182022F05F
:101A1000F00242EA011123F00A0242EA0E02CCF877
:101A20001810CCF82020DCF8081041F0470121F014
:101A3000300180E06F2B27DDB3F5005F48D0B3F5B0
:101A4000805F7AD0702B40F08180D1E901E3C968D2
:101A5000DCF8082043EA0E0322F47F4243EA012126
:101A60001143CCF80810DCF8081041F0770162E06F
:101A70000BB1102B6AD1DCF8081021F0700119436A
:101A800041F0070157E000BF502B35D0602B5DD1EE
:101A9000D1F804E0C968DCF82030DCF8202022F01E
:101AA0001002CCF82020DCF8182022F4704242EA20
:101AB000013123F0A00242EA0E12CCF81810CCF843
:101AC0002020DCF8081041F0670121F0100132E01D
:101AD000D1E901E3C968DCF8082043EA0E0322F4E7
:101AE0007F4243EA01211143CCF80810DCF80810CA
:101AF00041F480411FE000BFD1F804E0C968DCF880
:101B00002030DCF8202022F00102CCF82020DCF884
:101B1000182022F0F00242EA011123F00A0242EA00
:101B20000E02CCF81810CCF82020DCF8081041F098
:101B3000570121F02001CCF808100022012180F883
:101B40003D10002180F83C10104680BD0122F5E7D1
:101B50007047000010B5016804460869800744BF5B
:101B6000C8685FEA807039D40869400744BFC86814
:101B70005FEA40703ED40869000744BFC8685FEA66
:101B8000007045D40869C00644BFC8685FEAC060F9
:101B90004AD40869C0071CBFC8685FEAC07051D149
:101BA0000869000644BFC8685FEA006052D408694B
:101BB000400644BFC8685FEA406053D408698006A5
:101BC00046BFC8685FEA806010BD6FF02002204603
:101BD0000A61BDE81040FFF793BD00BF6FF002003F
:101BE0000861012020778869800743D02046FFF7ED
:101BF000AFFF45E06FF0040008610220207788699C
:101C000010F4407F40D02046FFF7A2FF42E000BF23
:101C10006FF00800086104202077C86980073DD074
:101C20002046FFF795FF3FE06FF0100008610820A5
:101C30002077C86910F4407F3AD02046FFF788FF2C
:101C40003CE000BF6FF001000861204600F064FA3C
:101C50002168A5E76FF0800008612046FFF74EFD80
:101C60002168A4E76FF040000861204600F05CFAAC
:101C70002168A3E7204600F05DF8204600F0DAF97D
:101C80002168002020776FE7204600F053F82046B7
:101C900000F0D0F92168002020776CE7204600F0A2
:101CA00049F8204600F0C6F921680020207769E74E
:101CB000204600F03FF8204600F0BCF921680020E3
:101CC000207766E780B586B0006840F20042C4F233
:101CD000000200219042049102D006B080BD00BFF6
:101CE00041F21800C4F20200016841F008010160ED
:101CF000006802A900F008000190019833200290CA
:101D000002200390059040F60040C4F20100FFF766
:101D100025F80420C4F2010001684FF2FF32CFF62B
:101D2000FF02114041F0E06141F40061016006B042
:101D300080BD0000704700002DE9F04390F83C3072
:101D4000012B04BF0220BDE8F0834FEAB202032A50
:101D50003CD8DFE802F0034381BD00BF036842F6D0
:101D600000461D6A1A6AC4F2010622F001021A62D4
:101D70001A465C6852F818CFB3428E68D1F800E07A
:101D800025F0020545EA06050CD1CE68D1E90578B3
:101D900024F4407425F00C0526F004063C4335433A
:101DA00044EA08042CF0730747EA0E075C609F6161
:101DB0004F6809695F631D629F6947F008079F616B
:101DC0009F6927F004079F61B2E000BF0121002254
:101DD00080F83C200846BDE8F08300BF036842F667
:101DE00000461D6A1A6AC4F2010622F010021A6245
:101DF0001A46D3F804C052F8184FB3428E68D1F88F
:101E000000E025F0200545EA061510D1CE68D1E99D
:101E1000058725F0C0096FF0400505EA06152CF48A
:101E2000406647EA080745EA090546EA870C24F4B4
:101E3000E64444EA0E27C3F804C09F614F6809696D
:101E40009F631D629F6947F400679F619F6927F444
:101E500080679F616BE000BF036842F600461D6A21
:101E60001A6AC4F2010622F480721A621A46D3F882
:101E700004C052F81CEFB3428E680C6825F400755C
:101E800045EA062511D1CE68D1E9058725F44069D8
:101E9000360240F2FF4526EA05052CF4405647EA93
:101EA000080745EA090546EA071C2EF07307274391
:101EB000C3F804C0DF614F680969DF631D62DF6931
:101EC00047F00807DF61DF6927F00407DF612FE0D3
:101ED000036842F60047D3F820C01A6AC4F201072B
:101EE00022F480521A621A465C6852F81C5FD1F8DC
:101EF00000E08E68BB4204D14F6924F4804444EA78
:101F000087142CF4005747EA063725F4E64646EADC
:101F10000E265C60DE614E6809691E641F62DF691F
:101F200047F40067DF61DF6927F48067DF6109023A
:101F30001368194311600021002280F83C200846F4
:101F4000BDE8F083002804BF0120704710B50446A7
:101F500090F83D0028B9002084F83C00204600F0AD
:101F600067F8022084F83D00206840F2FF730268A1
:101F7000C4F2000342F6004C9842C4F2010C15DC96
:101F8000B0F1804F1AD040F20041C4F20001884203
:101F900014D0984218DCB0F1804F1DD040F20041BF
:101FA000C4F20001884217D01AE000BF604505D096
:101FB00040F60001C4F200018842EAD1A16822F093
:101FC00070020A439842E6DD604505D040F6000104
:101FD000C4F20001884203D1216922F440720A430D
:101FE000A36922F08001D4F804E0E2681943604557
:101FF0000160C262C0F828E002D16169CCF83010FB
:1020000001214161002084F8461084F83E1084F8D4
:102010003F1084F8401084F8411084F8421084F88E
:10202000431084F8441084F8451084F83D1010BD26
:10203000704700007047000041B1082910D0042902
:1020400014BF00F1410200F13F020BE090F83E2086
:10205000012A1CBF01207047022280F83E2013E0B5
:1020600000F140021278012A1CBF012070470222B1
:10207000082907D0042914BF80F8412080F83F20A8
:1020800002E000BF80F84020006801F01F0101223B
:10209000036A8A4023EA02010162036A42F644416C
:1020A000C4F201011A43A1F14403984202620FD025
:1020B00040F2FF71C4F20001884213DCB0F1804F9E
:1020C0001CD040F20041C4F20001884216D01CE04E
:1020D0000A6842F400420A6040F2FF71C4F2000153
:1020E0008842EBDD42F60041C4F20101884205D08E
:1020F00040F60001C4F20001884206D1816801F077
:102100000701062904BF00207047016841F0010162
:10211000016000207047000040F27000C2F2000031
:10212000416801314160704770470000704700000E
:1021300070470000B0B582B0044600680168C3680B
:10214000426901F02F05202D03F0200506D12DB1A5
:10215000204602B0BDE8B04000F0FEBC5FEA017C62
:102160001EBF02F0010E03F4907212EB0E0253D167
:10217000226B012A05D111F0100218BF13F01002D2
:1021800036D10A0622D513F080021FD094F84110F0
:1021900021293FD1A168B1F5805F03D121690029D0
:1021A00000F07082216A4A1C226209784160E18C49
:1021B00001390A04E1842DD1C16821F08001C16098
:1021C000C16841F04001C16002B0B0BD490621D5EF
:1021D00013F040011ED0C16821F04001C1602021F0
:1021E000204684F8411002B0BDE8B04000F092BC37
:1021F00000210191016801914168019101994069B3
:10220000400613D4A08DE18DE28D002A18BF8842CC
:1022100040F0BA8102B0B0BDCA0718BF13F4807293
:1022200040F0B6804A0700F1B980BEE0E06B01687B
:1022300049688AB2002AEDD0A38D9A42EAD2E1859C
:102240008069202800F09C80206850E8030F2168F6
:1022500020F4807041E80302DAB1206850E8030FEF
:10226000216820F4807041E8030292B1206850E8B0
:10227000030F216820F4807041E803024AB120680E
:1022800050E8030F216820F4807041E80302002A1F
:10229000DAD1206850E8050F216820F0010041E8FC
:1022A0000502DAB1206850E8050F216820F001002E
:1022B00041E8050292B1206850E8050F216820F03E
:1022C000010041E805024AB1206850E8050F216885
:1022D00020F0010041E80502002ADAD1206850E828
:1022E000050F216820F0400041E80502DAB12068BE
:1022F00050E8050F216820F0400041E8050292B146
:10230000206850E8050F216820F0400041E80502F0
:102310004AB1206850E8050F216820F0400041E8EC
:102320000502002ADAD1202084F842000020206330
:10233000206850E8030F216820F0100041E80302F4
:10234000DAB1206850E8030F216820F0100041E85E
:10235000030292B1206850E8030F216820F01000BA
:1023600041E803024AB1206850E8030F216820F0D9
:10237000100041E80302002ADAD1E06BFEF79EFB71
:1023800002206063A08DE18D401A81B2204674E185
:10239000626C42F0010262644A0706D5BEF1000F8A
:1023A00003D0626C42F0020262648A0706D5BEF175
:1023B000000F03D0626C42F004026264BCF1000FB3
:1023C00009D545EA0E02B2FA82F2520903D1626CD3
:1023D00042F008026264626C002A3FF41BAF11F005
:1023E000200118BF002D03D0204600F0B5FB206867
:1023F0004069616C00F0400001F00801401800F0F5
:10240000B58000BF206850E8030F216820F4907069
:1024100041E80302BAB3206850E8030F216820F4B2
:10242000907041E8030272B3206850E8030F2168FE
:1024300020F4907041E803022AB3206850E8030FAB
:10244000216820F4907041E80302002ADAD11AE0F2
:10245000206850E8050F216820F0010041E80502DE
:10246000DAB1206850E8050F216820F0010041E84A
:10247000050292B1206850E8050F216820F00100A4
:1024800041E805024AB1206850E8050F216820F0B4
:10249000010041E80502002ADAD1206B012824D18D
:1024A000206850E8030F216820F0100041E8030283
:1024B000DAB1206850E8030F216820F0100041E8ED
:1024C000030292B1206850E8030F216820F0100049
:1024D00041E803024AB1206850E8030F216820F068
:1024E000100041E80302002ADAD1202084F84200DB
:1024F000002020632068406940063FD5206850E8EE
:10250000050F216820F0400041E80502DAB120689B
:1025100050E8050F216820F0400041E8050292B123
:10252000206850E8050F216820F0400041E80502CE
:102530004AB1206850E8050F216820F0400041E8CA
:102540000502002ADAD1E06BC0B142F64D31C0F687
:1025500000014163FEF7D6FA00283FF45BAEE06B62
:10256000416B02B0BDE8B040084700BF2046FFF70E
:10257000DFFD0020606402B0B0BD00BF204602B0A5
:10258000BDE8B040FFF7D4BD401A216851E8031FF1
:10259000226821F4907142E80313DBB1216851E80D
:1025A000031F226821F4907142E8031393B121685C
:1025B00051E8031F226821F4907142E803134BB1E4
:1025C000216851E8031F226821F4907142E8031347
:1025D000002BDAD1216851E8051F226821F00101A2
:1025E00042E80513DBB1216851E8051F226821F09C
:1025F000010142E8051393B1216851E8051F2268E3
:1026000021F0010142E805134BB1216851E8051F93
:10261000226821F0010142E80513002BDAD12021C4
:1026200084F8421000212163216851E8031F2268C9
:1026300021F0100142E80313DBB1216851E8031FC8
:10264000226821F0100142E8031393B1216851E898
:10265000031F226821F0100142E803134BB12168E7
:1026600051E8031F226821F0100142E80313002BF8
:10267000DAD1022281B22046626302B0BDE8B040E6
:10268000FFF754BD216A31F8022B6FF35F224260DD
:1026900021628CE5002804BF0120704710B5044674
:1026A00090F8410028B9002084F84000204600F04E
:1026B00063F8242084F841002068D4E90212C3683A
:1026C00023F40053C360036923F440531A430261A7
:1026D000D4E904231143C268194341F20C639A43BD
:1026E0001143C1604169A26921F44071114343F66D
:1026F0000002C4F201029042416103D0FEF7E6FD00
:1027000002E000BFFEF7F6FD626819214843910020
:10271000B0FBF1F048F21F51C5F2EB11A0FB012311
:102720005A094FF69C73C0F6FF7302FB0300322375
:1027300003EB0010A0FB0101F02303EA5113206812
:1027400003EB0212C1F3431111448160016921F4CA
:1027500090410161416921F02A014161C16841F460
:102760000051C16000202021606484F8411084F889
:102770004210606310BD000070B586B040F60004E2
:10278000C4F20104006804F5405100268842049612
:1027900002D006B070BD00BF41F21800C4F20200C2
:1027A000016802AD41F480410160016801F480419B
:1027B00001910199016841F0040101600068294616
:1027C00000F00400019001984FF400700290022084
:1027D0000390032005902046FEF7C0FA4FF4806076
:1027E000CDE90206204629460496FEF7B7FA2520D1
:1027F00002210022FEF74EFC2520FEF737FC06B032
:1028000070BD000090F84230202B1CBF02207047A2
:1028100000294FF0010318BF002A01D11846704764
:1028200000230363816222218285C285436480F88C
:1028300042100169006819B1C16841F48071C1603A
:102840004169002341F001014161C16841F020016B
:10285000C16018467047000080B540F27001C2F2B6
:1028600000010068CA6A904218BF80BD40F22C1077
:10287000C2F20000036808784A7891F802C091F823
:1028800003E058639A63C3F83CC001F12C000422B2
:10289000C3F840E0BDE88040FFF7B4BF2DE9F04346
:1028A00081B0044690F84100202840F0B18088466D
:1028B00000294FF0010000F0D6801646002A00F0F3
:1028C000D2800020606421201D4684F84100FEF77C
:1028D0005FFBA684E684A1680646B1F5805F03D15C
:1028E0002069002800F0988047464FF00008E18CEE
:1028F0002068002900F0968005F101090BE000BF77
:1029000047B317F8011B4160E18C0139E184E18C88
:10291000002900F0878001680906F1D4B9F1000FA1
:102920000AD0EDB1FEF734FB801BA84218D820680E
:1029300001680906F6D5E3E701680906E0D40168F5
:1029400009065CBF01685FEA0161D9D40168090624
:10295000F2D5D5E738F8021B00276FF35F21D2E7E5
:10296000206850E8030F216820F4D07041E803028A
:10297000BAB3206850E8030F216820F4D07041E812
:10298000030272B3206850E8030F216820F4D0706E
:1029900041E803022AB3206850E8030F216820F4BD
:1029A000D07041E80302002ADAD11AE0206850E82A
:1029B000050F216820F0010041E80502DAB1206826
:1029C00050E8050F216820F0010041E8050292B1AE
:1029D000206850E8050F216820F0010041E8050259
:1029E0004AB1206850E8050F216820F0010041E855
:1029F0000502002ADAD1202084F8410084F8420040
:102A0000002084F84000032001B0BDE8F08300BF3F
:102A1000022001B0BDE8F0830027E18C2068002986
:102A20007FF46AAF0168490619D4FDB1691C0DD164
:102A30000168490613D4016849065CBF01685FEA72
:102A400041610CD401684906F2D508E0FEF7A0FA0E
:102A5000801BA8420AD8206800684006F6D52020CE
:102A600084F84100002001B0BDE8F083206850E800
:102A7000030F216820F4D07041E80302002A3ED001
:102A8000206850E8030F216820F4D07041E8030269
:102A9000AAB3206850E8030F216820F4D07041E801
:102AA000030262B3206850E8030F216820F4D0705D
:102AB00041E80302002AD9D121E000BF206850E894
:102AC000050F216820F0010041E80502002A3FF4CB
:102AD00092AF206850E8050F216820F0010041E81E
:102AE0000502002A3FF487AF206850E8050F2168EF
:102AF00020F0010041E80502002A3FF47CAF206885
:102B000050E8050F216820F0010041E80502002A85
:102B1000D4D170E770470000FEE70000FEE7000038
:102B2000FEE700007047000070470000FEF736BA6D
:102B30007047000040F2E400C2F20000FFF70AB85C
:102B400040F22C10C2F20000FFF704B8406A0021E6
:102B5000C185C184FFF7ECBA81B090F842102229F8
:102B600021D183680246B3F5805F09D152F8281F4E
:102B700052F8183C002B63D003685B680AE000BF82
:102B800052F8281F13B90369002BF5D003685B685E
:102B900003F07F030B70116801311160C18D0139A1
:102BA0000A04C18502D001B0704700BF0168CA683D
:102BB00022F02002CA60CA6822F48072CA604A69A0
:102BC00022F001024A61202180F842100021416375
:102BD000026B012A3CD10163016851E8031F0268BE
:102BE00021F0100142E80313DBB1016851E8031F33
:102BF000026821F0100142E8031393B1016851E823
:102C0000031F026821F0100142E803134BB1016871
:102C100051E8031F026821F0100142E80313002B62
:102C2000DAD101680A68D20606D5002200920A6845
:102C30000092496800910099818D01B0FFF776BA42
:102C4000026852686FF35F2221F8022B8162A5E7C8
:102C500001B0FFF701BE000040F29C00C2F200008C
:102C6000FFF768BAFEE7000092B0FEF7A5F900246E
:102C70000120CDE90B44CDE9094406900A904FF4B8
:102C8000E0104FF4803102250F9006A8CDE907141B
:102C9000CDE90D51FEF742FB20B1EFF3108072B683
:102CA000FEE700BF0F20CDE900054FF48060CDE9BD
:102CB0000304684602210294FEF728FA20B1EFF3DC
:102CC000108072B6FEE700BF41F21800C4F20200A5
:102CD000016840F6000841F0100101600168C4F28B
:102CE000010801F0100106910699016808F50067D6
:102CF00041F0200101600168002201F020010691ED
:102D0000069901684FF4005641F004010160016822
:102D1000002501F0040106910699016841F00801BF
:102D2000016000684FF4005100F00800069006981A
:102D30003846FEF727F940464FF4184100224FF479
:102D4000184AFEF71FF908F5806420460821002282
:102D5000FEF718F9069606AE4FF0010B4FF0020988
:102D600038463146CDE907B5CDF82490FDF7F6FF9A
:102D70000027C1F2110740463146CDF81890CDE941
:102D80000779FDF7EBFF5020CDE9060740463146B5
:102D90000895FDF7E3FFA020CDE906054046314642
:102DA0000895FDF7DBFF40463146CDE906ABCDE99E
:102DB0000859FDF7D3FF0820CDE9060B2046314620
:102DC000CDE90859FDF7CAFF072005210022FEF7CB
:102DD00061F90720FEF74AF90A2005210022FEF7D3
:102DE00059F90A20FEF742F9172005210022FEF7C3
:102DF00051F91720FEF73AF940F27004C2F20004CC
:102E000008F54051204640F82C1F4FF4E1310C22C8
:102E1000C0E90115C0E90355C0E90525C561FFF703
:102E200039FC28B1EFF3108072B600BFFEE700BF97
:102E300040F2E400C2F200004FF0804140F2CF22A5
:102E400042F20F7380E8260080210995CDE90755ED
:102E5000CDE90055C0E903358161FEF791FC28B149
:102E6000EFF3108072B600BFFEE700BF4FF4805052
:102E7000069040F2E400C2F2000006A9FEF79AFDB7
:102E800020B1EFF3108072B6FEE700BF40F2E4001D
:102E9000C2F200006946FEF735FC28B1EFF310805E
:102EA00072B600BFFEE700BF40F22C100021A8F56B
:102EB0008232C2F200000B23FF270391CDE90111FA
:102EC000CDE91011CDE90B11CDE90911C0E90023BD
:102ED000C0E9021701618161FEF752FC20B1EFF3F6
:102EE000108072B6FEE700BF4FF48050009040F2B1
:102EF0002C10C2F200006946FEF75CFD20B1EFF332
:102F0000108072B6FEE700BF40F22C10C2F2000043
:102F1000FFF718F820B1EFF3108072B6FEE700BF9C
:102F200040F22C10C2F2000010A9FEF7EBFB28B112
:102F3000EFF3108072B600BFFEE700BF602006907E
:102F40000020CDE907000A9040F22C10C2F20000E8
:102F500006A90022FEF7F0FE20B1EFF3108072B652
:102F6000FEE700BF40F22C10C2F2000006A90422C6
:102F7000FEF7E2FE20B1EFF3108072B6FEE700BF6D
:102F800040F22C10C2F2000006A90822FEF7D4FE7F
:102F900020B1EFF3108072B6FEE700BF40F22C15AF
:102FA000C2F2000506A928460C22FEF7C5FE18B19C
:102FB000EFF3108072B6FEE72846FEF783FE04F1B9
:102FC0002C0021460422FFF71DFC40F2E400C2F26F
:102FD0000000FEF7B7FC2846FEF780FC28460021DB
:102FE0000024FFF729F828460421FFF725F8284692
:102FF0000821FFF721F828460C21FFF71DF8286863
:1030000044638463C4630464FEE75FEA400C08BF62
:1030100091F0000F4FEA8C234FEAC12243EA51514D
:103020004FEA1C5018BF00F5F0404FEA300018BFBF
:1030300041F000415FEA6C5C00F02980BCF1FF3F89
:1030400008BF40F080407047130C06BF12044FF0D9
:10305000100C4FF0000C130E04BF12020CF1080C00
:10306000130F04BF12010CF1040C930F04BF920064
:103070000CF1020CD30F04BF52000CF1010C1146ED
:103080004FF00002A0F11F00A0EB0C00704711F000
:10309000004F08BF704731F000413FF4D5AF0B0C33
:1030A00006BF09044FF0100C4FF0000C0B0E04BFCC
:1030B00009020CF1080C0B0F04BF09010CF1040C00
:1030C0008B0F04BF89000CF1020CCB0F04BF490029
:1030D0000CF1010CCCF1200322FA03F341EA0301C5
:1030E00002FA0CF2A0EB0C0000F1010070470000A6
:1030F00023F07F4720F07F4C80EA030000F000407F
:10310000ACEB070303F57C5303F1FF032DE9804982
:1031100009B44FEA144324EA03484FEA154B25EA61
:103120000B4E0FF2042606EB13273E7803FB0667CF
:10313000C7F5000707FB06F64FEAD64606F102067A
:103140004FEA543707FB066CCCF1005C4FEA1C4792
:103150002CEA074C0CFB06F507FB06F404EB1546BE
:103160004FEA961649085FEA320234BF00204FF05A
:1031700000404FEAD13706FB07FC4FEA1C4C0CFB22
:103180000BF7D21B03FB0CF761EB07010CFB0EF7EF
:10319000B0EB074072EB17420CFB08F734BFA2EB11
:1031A0000742B2EB074261EB17414FEA0C444FEA8A
:1031B000910706FB07FC4FEA1C4C0CFB0BF7B0EB2E
:1031C000C74072EB573203FB0CF734BFA2EBC74288
:1031D000B2EBC74261EB57310CFB0EF7B0EBC70007
:1031E00072EB57720CFB08F734BFA2EBC702B2EBCD
:1031F000C70261EB57714FEA816141EA92114FEAD0
:10320000826242EA90124FEA806004EBCC04039F92
:103210004FEAD13706FB07FC4FEA1C4C0CFB0BF7BF
:10322000D21B03FB0CF761EB07010CFB0EF7B0EBB5
:10323000074072EB17420CFB08F734BFA2EB0742C2
:10324000B2EB074261EB17414FEA8C5504EB9C242B
:103250004FEA910706FB07FC4FEA1C4C0CFB0BF7EF
:10326000B0EBC74072EB573203FB0CF734BFA2EB55
:10327000C742B2EBC74261EB57310CFB0EF7B0EB24
:10328000C70072EB57720CFB08F734BFA2EBC70202
:10329000B2EBC70261EB57714FEA816141EA9211CB
:1032A0004FEA826242EA90124FEA806015EB4C25A9
:1032B00044F100044FEAD13706FB07FC4FEA1C4CEF
:1032C0000CFB0BF7D21B03FB0CF761EB07010CFBAC
:1032D0000EF7B0EB074072EB17420CFB08F734BF58
:1032E000A2EB0742B2EB074261EB17414FEA813193
:1032F00041EA92414FEA823242EA90424FEA8030FC
:103300004FEA0C7615EB1C1544F1000448EA034320
:103310004EEA0B484FF0000EB2EB080C71EB0307BE
:1033200024BF624639464EEB0E0E4FF0000B0018DC
:10333000524149414BEB0B0BB2EB080C71EB03070D
:103340007BF1000B24BF624639464EEB0E0E4FF068
:10335000000B0018524149414BEB0B0BB2EB080C30
:1033600071EB03077BF1000B24BF624639464EEB3D
:103370000E0E51EA020718BF46F0010616EB0E7654
:1033800055F1000254F1000103D5BDE88901BDE803
:103390000088BDE88901BDE80048B619524141EBFB
:1033A0000101A3F10103704780807F7E7D7C7B7AE1
:1033B0007978777676757473727171706F6E6E6DE1
:1033C0006C6C6B6A6A696868676666656464636387
:1033D00062616160605F5F5E5E5D5D5C5C5B5B5A0D
:1033E0005A5959585857575656555555545453537A
:1033F00052525251515050504F4F4F4E4E4D4D4DD5
:103400004C4C4C4B4B4B4A4A4A494949484848471F
:10341000474747464646454545444444444343435D
:1034200043424242424141419C46002B30D4770006
:103430002BD04FEA37071CB503B44FF010004FF004
:103440001001BAF1000F06D0BCF1000FDCBF40F054
:10345000080040F008014FF000000FBCBDE810402C
:103460000BF1010BBBF1010F08BF5FEA170722BF89
:1034700012F1010211F101014FF0004143F100038B
:1034800000F0004043EA00007047F9D35708D0E746
:1034900046EA06464FEA164613F1400F1FDD13F1C8
:1034A000200FDFBF16430A46002120335B42BED007
:1034B000C3F1200746EA06464FEA164602FA07F726
:1034C00046EA070622FA03F2C3F1200701FA07F7DA
:1034D00042EA070221FA03F14FF00003A7E746EAA8
:1034E000020646EA06464FEA164646EA0106BCBF11
:1034F00046EA0646360C4FF000034FF000024FF04C
:10350000000194E72DE9804C70B49A46934691E807
:10351000380007C831EA400C48BF34EA430C03D5F1
:10352000FFF7E6FDFFF780FFF0BCBDE8008C2DE95A
:10353000804C70B49A46934691E8380007C810F062
:10354000804F08BF13F0804F03D100F005F8FFF75C
:103550006BFFF0BCBDE8008C20F07F4723F07F4C70
:1035600080EA030000F0004007EB0C03A3F57C5356
:10357000A3F1FE0392F0000F00F0B38095F0000F6E
:1035800000F077802DE901494FEA114021EA004817
:103590004FEA144624EA064700FB06FC08FB06F641
:1035A00007FB08F818EB06484CEB164C00FB07F736
:1035B00018EB07484CEB17404FEA124B22EA0B4E30
:1035C0004FEA154625EA06470BFB06FC0EFB06F6FE
:1035D00007FB0EFE1EEB064E4CEB164C0BFB07F7E3
:1035E0001EEB074E4CEB174B18EB0B0840F100009D
:1035F00018EB0E0B58EB000840F100008F1A4FF04B
:1036000000014FF000063CBFC943661B14BFB5EB79
:10361000040C00213CBFC943F61B4FEA174427EABC
:1036200004454FEA1C472CEA074C04FB076205FBE4
:1036300007F70CFB05F616EB074642EB174204FBB7
:103640000CFC16EB0C4642EB1C421BEB060658EB3F
:10365000020241414EEA8E0E46EA9E0601D5BDE8C1
:103660000189B619524141EB0101A3F10103BDE803
:1036700001894FEA144524EA05464FEA114721EA39
:10368000074C05FB07F406FB07F70CFB06F111EBF3
:10369000074144EB174405FB0CFC11EB0C4144EBD8
:1036A0001C444FEA124722EA074C05FB07F206FBCF
:1036B00007F70CFB06F616EB074642EB174205FB35
:1036C0000CFC16EB0C4642EB1C456A1854F1000149
:1036D00048BF7047B619524141EB0101A3F1010304
:1036E000704795F0000F37D04FEA114221EA0246A9
:1036F0004FEA144724EA074C02FB07F106FB07F7E1
:103700000CFB06F414EB074441EB174102FB0CFCE5
:1037100014EB0C4441EB1C414FEA154725EA074CDA
:1037200002FB07F506FB07F70CFB06F616EB074650
:1037300045EB174502FB0CFC16EB0C4645EB1C4217
:10374000121951F1000148BF7047B619524141EBBF
:103750000101A3F1010370474FEA144524EA05462D
:103760004FEA114721EA074C05FB07F106FB07F773
:103770000CFB06F212EB074241EB174105FB0CFC78
:1037800012EB0C4251EB1C414FF0000648BF704752
:10379000921841EB0101A3F101037047490050EA7F
:1037A000C12018BF04204A0D18BF40F0010040F2AC
:1037B000FF72B2EB515F08BF40F00200012808BF62
:1037C0000520704710B500290AD00878002807D0D6
:1037D00005487844FDF71AF9002801D0002010BDF3
:1037E0000248784410BD00002E07000026070000A4
:1037F00021F0004201F00043A2F16052B2F5801FB7
:1038000028BFD2F17F6C0BD95FEA001C43EAC202E9
:1038100042EB507018BF704728BF20F0010070477E
:10382000B2F5801FBCBF184670474FEA410C1CF52B
:10383000001F02D2084600F0EABA70B500F022FA82
:1038400000000089FFF7F6BF4FF00040A0F58000B0
:10385000704700002DE9C04130B4DFF8A4C23CEA53
:10386000111418BF3CEA131400F0ED801CEA111487
:1038700081EA030544EAD57418BF1CEA131500F069
:10388000C880A4EB050404F17F7404F500344FF004
:10389000004545EAC12145EAC32341EA505143EAC4
:1038A00052534FEAC0204FEAC222994208BF9042C9
:1038B00000F09D804FEA13650FF24416765D4FEAE3
:1038C000134506FB05F7C7F1807706FB07F74FEABC
:1038D000D737A7FB03687642A7FB06CEC8F580382A
:1038E00038BFA8F1010807FB08E6A6FB028C4FF0E1
:1038F000000EE6FB03CEDCF1000CCEF1004E38BF2B
:10390000AEF1010EA6FB0C584FF00007E6FB0E8748
:10391000A1FB08C6A0FB07CE16EB0E064FF0000574
:1039200045F10005E1FB076515F1E04E7EBFA4F50A
:1039300080345FEA46066D4116F1800745F10005C7
:103940004FEA172747EA05674FEA15254FEA06664B
:10395000A6F1DE46B6F1805F20D9384605EBC4718A
:1039600024F0010C01EB0C11BCF1FE6F02D8F0BC8D
:10397000BDE8008124425CBF01F5801E9EEAC47F41
:1039800002D4F0BCBDE80081244200F13980A1F1ED
:10399000C041F0BCBDE8004100F0C2B94FEAD02000
:1039A00040EA41504FEAD1214FEAD22242EA435243
:1039B0004FEAD323A7FB028607FB036605FB0266DB
:1039C0001EEA0E0F58BFA6EB0056B6EB00564FEAA4
:1039D000520E4EEAC37E18EB0E0E56EB530EBCD5BC
:1039E00018EB02085E417F1C55F10005B5E74FF466
:1039F00080154FF000074FF000064FF00008ACE7CD
:103A000001F1C04101F000414FF00000F0BCBDE801
:103A100000810CEA131511EA0C1F00D00CE013EA28
:103A20000C1F00F026804FF0000081EA030101F036
:103A30000041F0BCBDE80081F0BCBDE8004181EA76
:103A4000030100F06DB9F0BCBDE8004170B500F0B5
:103A500019F900BF097EFC3E00F007B84FF00000E6
:103A600081EA030101F00041704781EA030100F09F
:103A700057B9F0BCBDE8004122494FF00000704743
:103A8000FFFDFBF9F7F5F4F2F0EEEDEBE9E8E6E423
:103A9000E3E1E0DEDDDBDAD8D7D5D4D3D1D0CFCDAA
:103AA000CCCBCAC8C7C6C5C4C2C1C0BFBEBDBCBBE3
:103AB000BAB9B8B7B6B5B4B3B2B1B0AFAEADACABDE
:103AC000AAA9A8A8A7A6A5A4A3A3A2A1A09F9F9EB8
:103AD0009D9C9C9B9A99999897979695959493936A
:103AE000929191908F8F8E8E8D8C8C8B8B8A898901
:103AF0008888878786858584848383828281818084
:103B00000000FF070000F87FB0FA80F310FA03F11D
:103B10000AD0C3F11D0303F580634FEA03524FEA55
:103B2000415002EBD12170474FF000007047000078
:103B300070B5DFF848C11CEA111E1EBF1CEA131540
:103B40009EEA0C0F95EA0C0F00F06F8081EA0304E7
:103B50004EEAD47EAE4421EA4C1123EA4C1341F4E0
:103B6000801143F48013AEF17F7EA1FB024CA0FBD9
:103B70000365361955EB0C05A1FB034C4CF1000312
:103B8000A0FB021C16EB0C06654153F10003094231
:103B900018BF46F0010613F4007F0BD14FEA033142
:103BA0004FEA053041EA155140EA165034036FF0F0
:103BB00003020AE04FEAC3214FEAC52041EA55510A
:103BC00040EA5650F4026FF0020202EB2E4201EB83
:103BD000025585EACE710AD05FEA440C18BF24F082
:103BE000004450F1000041F1000120EAD47040F29D
:103BF000FE7C624500D270BDA84214BF4FF08044E5
:103C00004FF04044002E08BF0024BEF1806FA8BFD3
:103C1000A1F1C041BDE8704080F2828001F1C04155
:103C200001F000414FF0000070470CEA13159EEAC6
:103C30000C0F18BF95EA0C0F06D081EA030E4FF067
:103C400000000EF0004170BD00F01CF88900013E3C
:103C500000F007B800F009B84FEA430C5FEA5C5C7B
:103C600008D081EA030100F05BB84FEA410C5FEA3B
:103C70005C5CF6D102494FF0000070470000FF077E
:103C80000000F87F0EF1020E2EF0030E5EF8046BBA
:103C9000364205D4012A43EB030515F5001F12D85F
:103CA000012841EB010C1CF5001F0CD80ED14FEA86
:103CB000D17C0CEB4C0C0CF1020C15F5001F08BF6D
:103CC0004CEBD37C04E04FF0080C01E04FEAD37CCE
:103CD0000CEB4C0526FA05F606F00706B6F1040CC7
:103CE00006D20EEB860CBDE870404CF0010C60472C
:103CF000DFE80CF0090B02024FF00041A1F50021B2
:103D00004FF0000070BD19461046012851EB010428
:103D100018BFD4F5001484BF002001F0004170BD2D
:103D20000808A0F500114FEA3101704743004FEA3F
:103D3000D30C4FEA3C0C43401FBF40070CF16051CD
:103D400013F0FE4F70471CF0006F03D10CF00041E0
:103D5000002070470CF0004343EA507040EACC006A
:103D600010B500F00EF800BF000000924FEA00010D
:103D7000FFF7D6BF4FF00041A1F500214FF0000042
:103D800070470EF1020E2EF0030E5EF8044B244233
:103D900004D44FEA4102B2F17F4F11D84FEA4003F9
:103DA000B3F17F4F0CD80ED14FEAD07C0CEB4C0C0A
:103DB0000CF1020CB2F17F4F08BF4CEBD17C04E058
:103DC0004FF0080C01E04FEAD17C0CEB4C0324FAD5
:103DD00003F404F00704B4F1040C06D20EEB840CD7
:103DE000BDE810404CF0010C6047DFE80CF007081C
:103DF00002024FF00040A0F5800010BD08464200CE
:103E000018BFD2F1807288BF00F0004010BDFF21C2
:103E100041EAD050C0057047FCF75DBB024000008E
:103E2000000000A00000000005400000000000C8E5
:103E3000000000000C4000000000409C000000005A
:103E4000194000000020BCBE00000000344000000B
:103E5000BFC91B8E00000004B5400000504BCFD0FE
:103E60006607E2CF010000006C4100003E8251AACB
:103E7000DFEEA73401000000D9420000DCB5A0E26B
:103E80003A301F97FFFFFFFFB4450000FD25A0C893
:103E9000E9A3C14FFFFFFFFFFF3F000000000080CC
:103EA00000000000FF3F0000000000800000000054
:103EB00000000000000000000102030406070809DA
:103EC00000000000010203040102020304050607CA
:103ED00008090A0B0C0D0E0F1010257325666500DE
:103EE000203F00080000002010000000280100080A
:103EF000303F00081000002068070000440100085F
:103F00001C00000043000000F8FFFFFF0C00000051
:103F10000E0000000F0000002E0000000000000056
:103F200001000000100000000024F4000000000068
:04000005080000ED02
:00000001FF
